{
  "contractName": "GreggTokenCrowdsale",
  "abi": [
    {
      "constant": true,
      "inputs": [
        {
          "name": "_operator",
          "type": "address"
        },
        {
          "name": "_role",
          "type": "string"
        }
      ],
      "name": "checkRole",
      "outputs": [],
      "payable": false,
      "stateMutability": "view",
      "type": "function"
    },
    {
      "constant": true,
      "inputs": [],
      "name": "ROLE_WHITELISTED",
      "outputs": [
        {
          "name": "",
          "type": "string"
        }
      ],
      "payable": false,
      "stateMutability": "view",
      "type": "function"
    },
    {
      "constant": true,
      "inputs": [
        {
          "name": "_operator",
          "type": "address"
        },
        {
          "name": "_role",
          "type": "string"
        }
      ],
      "name": "hasRole",
      "outputs": [
        {
          "name": "",
          "type": "bool"
        }
      ],
      "payable": false,
      "stateMutability": "view",
      "type": "function"
    },
    {
      "constant": false,
      "inputs": [
        {
          "name": "_operators",
          "type": "address[]"
        }
      ],
      "name": "removeAddressesFromWhitelist",
      "outputs": [],
      "payable": false,
      "stateMutability": "nonpayable",
      "type": "function"
    },
    {
      "constant": false,
      "inputs": [
        {
          "name": "_operator",
          "type": "address"
        }
      ],
      "name": "removeAddressFromWhitelist",
      "outputs": [],
      "payable": false,
      "stateMutability": "nonpayable",
      "type": "function"
    },
    {
      "constant": true,
      "inputs": [],
      "name": "rate",
      "outputs": [
        {
          "name": "",
          "type": "uint256"
        }
      ],
      "payable": false,
      "stateMutability": "view",
      "type": "function"
    },
    {
      "constant": true,
      "inputs": [],
      "name": "cap",
      "outputs": [
        {
          "name": "",
          "type": "uint256"
        }
      ],
      "payable": false,
      "stateMutability": "view",
      "type": "function"
    },
    {
      "constant": true,
      "inputs": [],
      "name": "weiRaised",
      "outputs": [
        {
          "name": "",
          "type": "uint256"
        }
      ],
      "payable": false,
      "stateMutability": "view",
      "type": "function"
    },
    {
      "constant": true,
      "inputs": [
        {
          "name": "",
          "type": "address"
        }
      ],
      "name": "contributions",
      "outputs": [
        {
          "name": "",
          "type": "uint256"
        }
      ],
      "payable": false,
      "stateMutability": "view",
      "type": "function"
    },
    {
      "constant": true,
      "inputs": [],
      "name": "capReached",
      "outputs": [
        {
          "name": "",
          "type": "bool"
        }
      ],
      "payable": false,
      "stateMutability": "view",
      "type": "function"
    },
    {
      "constant": true,
      "inputs": [],
      "name": "wallet",
      "outputs": [
        {
          "name": "",
          "type": "address"
        }
      ],
      "payable": false,
      "stateMutability": "view",
      "type": "function"
    },
    {
      "constant": false,
      "inputs": [],
      "name": "renounceOwnership",
      "outputs": [],
      "payable": false,
      "stateMutability": "nonpayable",
      "type": "function"
    },
    {
      "constant": false,
      "inputs": [
        {
          "name": "_operator",
          "type": "address"
        }
      ],
      "name": "addAddressToWhitelist",
      "outputs": [],
      "payable": false,
      "stateMutability": "nonpayable",
      "type": "function"
    },
    {
      "constant": true,
      "inputs": [],
      "name": "owner",
      "outputs": [
        {
          "name": "",
          "type": "address"
        }
      ],
      "payable": false,
      "stateMutability": "view",
      "type": "function"
    },
    {
      "constant": true,
      "inputs": [],
      "name": "investorMaxCap",
      "outputs": [
        {
          "name": "",
          "type": "uint256"
        }
      ],
      "payable": false,
      "stateMutability": "view",
      "type": "function"
    },
    {
      "constant": true,
      "inputs": [
        {
          "name": "_operator",
          "type": "address"
        }
      ],
      "name": "whitelist",
      "outputs": [
        {
          "name": "",
          "type": "bool"
        }
      ],
      "payable": false,
      "stateMutability": "view",
      "type": "function"
    },
    {
      "constant": true,
      "inputs": [],
      "name": "investorMinCap",
      "outputs": [
        {
          "name": "",
          "type": "uint256"
        }
      ],
      "payable": false,
      "stateMutability": "view",
      "type": "function"
    },
    {
      "constant": false,
      "inputs": [
        {
          "name": "_operators",
          "type": "address[]"
        }
      ],
      "name": "addAddressesToWhitelist",
      "outputs": [],
      "payable": false,
      "stateMutability": "nonpayable",
      "type": "function"
    },
    {
      "constant": false,
      "inputs": [
        {
          "name": "_beneficiary",
          "type": "address"
        }
      ],
      "name": "buyTokens",
      "outputs": [],
      "payable": true,
      "stateMutability": "payable",
      "type": "function"
    },
    {
      "constant": false,
      "inputs": [
        {
          "name": "_newOwner",
          "type": "address"
        }
      ],
      "name": "transferOwnership",
      "outputs": [],
      "payable": false,
      "stateMutability": "nonpayable",
      "type": "function"
    },
    {
      "constant": true,
      "inputs": [],
      "name": "token",
      "outputs": [
        {
          "name": "",
          "type": "address"
        }
      ],
      "payable": false,
      "stateMutability": "view",
      "type": "function"
    },
    {
      "inputs": [
        {
          "name": "_rate",
          "type": "uint256"
        },
        {
          "name": "_wallet",
          "type": "address"
        },
        {
          "name": "_token",
          "type": "address"
        },
        {
          "name": "_cap",
          "type": "uint256"
        }
      ],
      "payable": false,
      "stateMutability": "nonpayable",
      "type": "constructor"
    },
    {
      "payable": true,
      "stateMutability": "payable",
      "type": "fallback"
    },
    {
      "anonymous": false,
      "inputs": [
        {
          "indexed": true,
          "name": "purchaser",
          "type": "address"
        },
        {
          "indexed": true,
          "name": "beneficiary",
          "type": "address"
        },
        {
          "indexed": false,
          "name": "value",
          "type": "uint256"
        },
        {
          "indexed": false,
          "name": "amount",
          "type": "uint256"
        }
      ],
      "name": "TokenPurchase",
      "type": "event"
    },
    {
      "anonymous": false,
      "inputs": [
        {
          "indexed": true,
          "name": "operator",
          "type": "address"
        },
        {
          "indexed": false,
          "name": "role",
          "type": "string"
        }
      ],
      "name": "RoleAdded",
      "type": "event"
    },
    {
      "anonymous": false,
      "inputs": [
        {
          "indexed": true,
          "name": "operator",
          "type": "address"
        },
        {
          "indexed": false,
          "name": "role",
          "type": "string"
        }
      ],
      "name": "RoleRemoved",
      "type": "event"
    },
    {
      "anonymous": false,
      "inputs": [
        {
          "indexed": true,
          "name": "previousOwner",
          "type": "address"
        }
      ],
      "name": "OwnershipRenounced",
      "type": "event"
    },
    {
      "anonymous": false,
      "inputs": [
        {
          "indexed": true,
          "name": "previousOwner",
          "type": "address"
        },
        {
          "indexed": true,
          "name": "newOwner",
          "type": "address"
        }
      ],
      "name": "OwnershipTransferred",
      "type": "event"
    },
    {
      "constant": true,
      "inputs": [
        {
          "name": "_beneficiary",
          "type": "address"
        }
      ],
      "name": "getUserContribution",
      "outputs": [
        {
          "name": "",
          "type": "uint256"
        }
      ],
      "payable": false,
      "stateMutability": "view",
      "type": "function"
    }
  ],
  "bytecode": "0x608060405266071afd498d00006007556802b5e3af16b188000060085534801561002857600080fd5b5060405160808061195b8339810180604052810190808051906020019092919080519060200190929190805190602001909291908051906020019092919050505080848484336000806101000a81548173ffffffffffffffffffffffffffffffffffffffff021916908373ffffffffffffffffffffffffffffffffffffffff1602179055506000831115156100bc57600080fd5b600073ffffffffffffffffffffffffffffffffffffffff168273ffffffffffffffffffffffffffffffffffffffff16141515156100f857600080fd5b600073ffffffffffffffffffffffffffffffffffffffff168173ffffffffffffffffffffffffffffffffffffffff161415151561013457600080fd5b8260048190555081600360006101000a81548173ffffffffffffffffffffffffffffffffffffffff021916908373ffffffffffffffffffffffffffffffffffffffff16021790555080600260006101000a81548173ffffffffffffffffffffffffffffffffffffffff021916908373ffffffffffffffffffffffffffffffffffffffff1602179055505050506000811115156101cf57600080fd5b806006819055505050505050611771806101ea6000396000f300608060405260043610610128576000357c0100000000000000000000000000000000000000000000000000000000900463ffffffff1680630988ca8c1461013357806318b919e9146101bc578063217fe6c61461024c57806324953eaa146102ed578063286dd3f5146103535780632c4e722e14610396578063355274ea146103c15780634042b66f146103ec57806342e94c90146104175780634f9359451461046e578063521eb2731461049d578063715018a6146104f45780637b9417c81461050b5780638da5cb5b1461054e5780639250c367146105a55780639b19251a146105d0578063b25d7f541461062b578063bb8b2b4714610656578063e2ec6ec3146106ad578063ec8ac4d814610713578063f2fde38b14610749578063fc0c546a1461078c575b610131336107e3565b005b34801561013f57600080fd5b506101ba600480360381019080803573ffffffffffffffffffffffffffffffffffffffff169060200190929190803590602001908201803590602001908080601f01602080910402602001604051908101604052809392919081815260200183838082843782019150505050505091929192905050506108b1565b005b3480156101c857600080fd5b506101d1610932565b6040518080602001828103825283818151815260200191508051906020019080838360005b838110156102115780820151818401526020810190506101f6565b50505050905090810190601f16801561023e5780820380516001836020036101000a031916815260200191505b509250505060405180910390f35b34801561025857600080fd5b506102d3600480360381019080803573ffffffffffffffffffffffffffffffffffffffff169060200190929190803590602001908201803590602001908080601f016020809104026020016040519081016040528093929190818152602001838380828437820191505050505050919291929050505061096b565b604051808215151515815260200191505060405180910390f35b3480156102f957600080fd5b50610351600480360381019080803590602001908201803590602001908080602002602001604051908101604052809392919081815260200183836020028082843782019150505050505091929192905050506109f2565b005b34801561035f57600080fd5b50610394600480360381019080803573ffffffffffffffffffffffffffffffffffffffff169060200190929190505050610a8e565b005b3480156103a257600080fd5b506103ab610b2b565b6040518082815260200191505060405180910390f35b3480156103cd57600080fd5b506103d6610b31565b6040518082815260200191505060405180910390f35b3480156103f857600080fd5b50610401610b37565b6040518082815260200191505060405180910390f35b34801561042357600080fd5b50610458600480360381019080803573ffffffffffffffffffffffffffffffffffffffff169060200190929190505050610b3d565b6040518082815260200191505060405180910390f35b34801561047a57600080fd5b50610483610b55565b604051808215151515815260200191505060405180910390f35b3480156104a957600080fd5b506104b2610b64565b604051808273ffffffffffffffffffffffffffffffffffffffff1673ffffffffffffffffffffffffffffffffffffffff16815260200191505060405180910390f35b34801561050057600080fd5b50610509610b8a565b005b34801561051757600080fd5b5061054c600480360381019080803573ffffffffffffffffffffffffffffffffffffffff169060200190929190505050610c8c565b005b34801561055a57600080fd5b50610563610d29565b604051808273ffffffffffffffffffffffffffffffffffffffff1673ffffffffffffffffffffffffffffffffffffffff16815260200191505060405180910390f35b3480156105b157600080fd5b506105ba610d4e565b6040518082815260200191505060405180910390f35b3480156105dc57600080fd5b50610611600480360381019080803573ffffffffffffffffffffffffffffffffffffffff169060200190929190505050610d54565b604051808215151515815260200191505060405180910390f35b34801561063757600080fd5b50610640610d9c565b6040518082815260200191505060405180910390f35b34801561066257600080fd5b50610697600480360381019080803573ffffffffffffffffffffffffffffffffffffffff169060200190929190505050610da2565b6040518082815260200191505060405180910390f35b3480156106b957600080fd5b5061071160048036038101908080359060200190820180359060200190808060200260200160405190810160405280939291908181526020018383602002808284378201915050505050509192919290505050610deb565b005b610747600480360381019080803573ffffffffffffffffffffffffffffffffffffffff1690602001909291905050506107e3565b005b34801561075557600080fd5b5061078a600480360381019080803573ffffffffffffffffffffffffffffffffffffffff169060200190929190505050610e87565b005b34801561079857600080fd5b506107a1610eee565b604051808273ffffffffffffffffffffffffffffffffffffffff1673ffffffffffffffffffffffffffffffffffffffff16815260200191505060405180910390f35b6000803491506107f38383610f14565b6107fc82610fe1565b905061081382600554610fff90919063ffffffff16565b600581905550610823838261101b565b8273ffffffffffffffffffffffffffffffffffffffff163373ffffffffffffffffffffffffffffffffffffffff167f623b3804fa71d67900d064613da8f94b9617215ee90799290593e1745087ad188484604051808381526020018281526020019250505060405180910390a361089a8383611029565b6108a261102d565b6108ac8383611098565b505050565b61092e826001836040518082805190602001908083835b6020831015156108ed57805182526020820191506020810190506020830392506108c8565b6001836020036101000a038019825116818451168082178552505050505050905001915050908152602001604051809103902061109c90919063ffffffff16565b5050565b6040805190810160405280600981526020017f77686974656c697374000000000000000000000000000000000000000000000081525081565b60006109ea836001846040518082805190602001908083835b6020831015156109a95780518252602082019150602081019050602083039250610984565b6001836020036101000a03801982511681845116808217855250505050505090500191505090815260200160405180910390206110b590919063ffffffff16565b905092915050565b60008060009054906101000a900473ffffffffffffffffffffffffffffffffffffffff1673ffffffffffffffffffffffffffffffffffffffff163373ffffffffffffffffffffffffffffffffffffffff16141515610a4f57600080fd5b600090505b8151811015610a8a57610a7d8282815181101515610a6e57fe5b90602001906020020151610a8e565b8080600101915050610a54565b5050565b6000809054906101000a900473ffffffffffffffffffffffffffffffffffffffff1673ffffffffffffffffffffffffffffffffffffffff163373ffffffffffffffffffffffffffffffffffffffff16141515610ae957600080fd5b610b28816040805190810160405280600981526020017f77686974656c697374000000000000000000000000000000000000000000000081525061110e565b50565b60045481565b60065481565b60055481565b60096020528060005260406000206000915090505481565b60006006546005541015905090565b600360009054906101000a900473ffffffffffffffffffffffffffffffffffffffff1681565b6000809054906101000a900473ffffffffffffffffffffffffffffffffffffffff1673ffffffffffffffffffffffffffffffffffffffff163373ffffffffffffffffffffffffffffffffffffffff16141515610be557600080fd5b6000809054906101000a900473ffffffffffffffffffffffffffffffffffffffff1673ffffffffffffffffffffffffffffffffffffffff167ff8df31144d9c2f0f6b59d69b8b98abd5459d07f2742c4df920b25aae33c6482060405160405180910390a260008060006101000a81548173ffffffffffffffffffffffffffffffffffffffff021916908373ffffffffffffffffffffffffffffffffffffffff160217905550565b6000809054906101000a900473ffffffffffffffffffffffffffffffffffffffff1673ffffffffffffffffffffffffffffffffffffffff163373ffffffffffffffffffffffffffffffffffffffff16141515610ce757600080fd5b610d26816040805190810160405280600981526020017f77686974656c6973740000000000000000000000000000000000000000000000815250611242565b50565b6000809054906101000a900473ffffffffffffffffffffffffffffffffffffffff1681565b60085481565b6000610d95826040805190810160405280600981526020017f77686974656c697374000000000000000000000000000000000000000000000081525061096b565b9050919050565b60075481565b6000600960008373ffffffffffffffffffffffffffffffffffffffff1673ffffffffffffffffffffffffffffffffffffffff168152602001908152602001600020549050919050565b60008060009054906101000a900473ffffffffffffffffffffffffffffffffffffffff1673ffffffffffffffffffffffffffffffffffffffff163373ffffffffffffffffffffffffffffffffffffffff16141515610e4857600080fd5b600090505b8151811015610e8357610e768282815181101515610e6757fe5b90602001906020020151610c8c565b8080600101915050610e4d565b5050565b6000809054906101000a900473ffffffffffffffffffffffffffffffffffffffff1673ffffffffffffffffffffffffffffffffffffffff163373ffffffffffffffffffffffffffffffffffffffff16141515610ee257600080fd5b610eeb81611376565b50565b600260009054906101000a900473ffffffffffffffffffffffffffffffffffffffff1681565b600080610f218484611470565b600960008573ffffffffffffffffffffffffffffffffffffffff1673ffffffffffffffffffffffffffffffffffffffff168152602001908152602001600020549150610f768383610fff90919063ffffffff16565b90506007548110158015610f8c57506008548111155b1515610f9757600080fd5b80600960008673ffffffffffffffffffffffffffffffffffffffff1673ffffffffffffffffffffffffffffffffffffffff1681526020019081526020016000208190555050505050565b6000610ff8600454836114bf90919063ffffffff16565b9050919050565b6000818301905082811015151561101257fe5b80905092915050565b61102582826114f7565b5050565b5050565b600360009054906101000a900473ffffffffffffffffffffffffffffffffffffffff1673ffffffffffffffffffffffffffffffffffffffff166108fc349081150290604051600060405180830381858888f19350505050158015611095573d6000803e3d6000fd5b50565b5050565b6110a682826110b5565b15156110b157600080fd5b5050565b60008260000160008373ffffffffffffffffffffffffffffffffffffffff1673ffffffffffffffffffffffffffffffffffffffff16815260200190815260200160002060009054906101000a900460ff16905092915050565b61118b826001836040518082805190602001908083835b60208310151561114a5780518252602082019150602081019050602083039250611125565b6001836020036101000a038019825116818451168082178552505050505050905001915050908152602001604051809103902061160690919063ffffffff16565b8173ffffffffffffffffffffffffffffffffffffffff167fd211483f91fc6eff862467f8de606587a30c8fc9981056f051b897a418df803a826040518080602001828103825283818151815260200191508051906020019080838360005b838110156112045780820151818401526020810190506111e9565b50505050905090810190601f1680156112315780820380516001836020036101000a031916815260200191505b509250505060405180910390a25050565b6112bf826001836040518082805190602001908083835b60208310151561127e5780518252602082019150602081019050602083039250611259565b6001836020036101000a038019825116818451168082178552505050505050905001915050908152602001604051809103902061166490919063ffffffff16565b8173ffffffffffffffffffffffffffffffffffffffff167fbfec83d64eaa953f2708271a023ab9ee82057f8f3578d548c1a4ba0b5b700489826040518080602001828103825283818151815260200191508051906020019080838360005b8381101561133857808201518184015260208101905061131d565b50505050905090810190601f1680156113655780820380516001836020036101000a031916815260200191505b509250505060405180910390a25050565b600073ffffffffffffffffffffffffffffffffffffffff168173ffffffffffffffffffffffffffffffffffffffff16141515156113b257600080fd5b8073ffffffffffffffffffffffffffffffffffffffff166000809054906101000a900473ffffffffffffffffffffffffffffffffffffffff1673ffffffffffffffffffffffffffffffffffffffff167f8be0079c531659141344cd1fd0a4f28419497f9722a3daafe3b4186f6b6457e060405160405180910390a3806000806101000a81548173ffffffffffffffffffffffffffffffffffffffff021916908373ffffffffffffffffffffffffffffffffffffffff16021790555050565b816114b0816040805190810160405280600981526020017f77686974656c69737400000000000000000000000000000000000000000000008152506108b1565b6114ba83836116c2565b505050565b6000808314156114d257600090506114f1565b81830290508183828115156114e357fe5b041415156114ed57fe5b8090505b92915050565b600260009054906101000a900473ffffffffffffffffffffffffffffffffffffffff1673ffffffffffffffffffffffffffffffffffffffff166340c10f1983836040518363ffffffff167c0100000000000000000000000000000000000000000000000000000000028152600401808373ffffffffffffffffffffffffffffffffffffffff1673ffffffffffffffffffffffffffffffffffffffff16815260200182815260200192505050602060405180830381600087803b1580156115bc57600080fd5b505af11580156115d0573d6000803e3d6000fd5b505050506040513d60208110156115e657600080fd5b8101908080519060200190929190505050151561160257600080fd5b5050565b60008260000160008373ffffffffffffffffffffffffffffffffffffffff1673ffffffffffffffffffffffffffffffffffffffff16815260200190815260200160002060006101000a81548160ff0219169083151502179055505050565b60018260000160008373ffffffffffffffffffffffffffffffffffffffff1673ffffffffffffffffffffffffffffffffffffffff16815260200190815260200160002060006101000a81548160ff0219169083151502179055505050565b6116cc82826116f5565b6006546116e482600554610fff90919063ffffffff16565b111515156116f157600080fd5b5050565b600073ffffffffffffffffffffffffffffffffffffffff168273ffffffffffffffffffffffffffffffffffffffff161415151561173157600080fd5b6000811415151561174157600080fd5b50505600a165627a7a72305820ff668720bc2080359ed8bad6d9fd9fdf8bb85158f43fd2eacf83ee6b1b2e403a0029",
  "source": "pragma solidity 0.4.24;\r\n\r\nimport \"openzeppelin-solidity/contracts/crowdsale/Crowdsale.sol\";\r\nimport \"openzeppelin-solidity/contracts/crowdsale/emission/MintedCrowdsale.sol\";\r\nimport \"openzeppelin-solidity/contracts/crowdsale/validation/CappedCrowdsale.sol\";\r\n//import \"openzeppelin-solidity/contracts/crowdsale/validation/TimedCrowdsale.sol\";\r\nimport \"openzeppelin-solidity/contracts/crowdsale/validation/WhitelistedCrowdsale.sol\";\r\n\r\ncontract GreggTokenCrowdsale is Crowdsale, MintedCrowdsale, CappedCrowdsale, WhitelistedCrowdsale {\r\n\r\n    // Track investor contributions\r\n    uint256 public investorMinCap = 2000000000000000; // 0.002 Ether\r\n    uint256 public investorMaxCap = 50000000000000000000; // 50 Ether\r\n    mapping(address => uint256) public contributions;\r\n\r\n    constructor(\r\n        uint256 _rate, \r\n        address _wallet, \r\n        ERC20 _token, \r\n        uint256 _cap \r\n        // uint256 _openingTime, \r\n        // uint256 _closingTime\r\n    ) \r\n        Crowdsale(_rate, _wallet, _token)\r\n        CappedCrowdsale(_cap)\r\n        // TimedCrowdsale(_openingTime, _closingTime)    \r\n        public \r\n    {\r\n\r\n    }\r\n\r\n    /**\r\n    * @dev Returns the amount contributed so far by a specific user.\r\n    * @param _beneficiary Address of contributor\r\n    * @return User contribution so far\r\n    */\r\n    function getUserContribution(address _beneficiary) public view returns (uint256) {\r\n        return contributions[_beneficiary];\r\n    }\r\n\r\n    /**\r\n    * @dev Extend parent behavior requiring purchase to respect investor min/max funding cap\r\n    * @param _beneficiary Token purchaser\r\n    * @param _weiAmount Amount of wei contributed\r\n    */\r\n    function _preValidatePurchase(address _beneficiary, uint256 _weiAmount) internal {\r\n        super._preValidatePurchase(_beneficiary, _weiAmount);\r\n        uint256 _existingContribution = contributions[_beneficiary];\r\n        uint256 _newContribution = _existingContribution.add(_weiAmount);\r\n        require(_newContribution >= investorMinCap && _newContribution <= investorMaxCap);\r\n        contributions[_beneficiary] = _newContribution;\r\n    }\r\n}",
  "sourcePath": "C:\\Users\\Gregg\\OneDrive\\Dapp University - Real World Applications\\Tutorials\\realworld_ico\\contracts\\GreggTokenCrowdsale.sol",
  "compiler": {
    "name": "solc",
    "version": "0.4.24+commit.e67f0147.Emscripten.clang"
  },
  "schemaVersion": "3.4.4",
  "updatedAt": "2022-01-19T17:55:51.065Z",
  "devdoc": {
    "methods": {
      "addAddressToWhitelist(address)": {
        "details": "add an address to the whitelist",
        "params": {
          "_operator": "address"
        },
        "return": "true if the address was added to the whitelist, false if the address was already in the whitelist"
      },
      "addAddressesToWhitelist(address[])": {
        "details": "add addresses to the whitelist",
        "params": {
          "_operators": "addresses"
        },
        "return": "true if at least one address was added to the whitelist, false if all addresses were already in the whitelist"
      },
      "buyTokens(address)": {
        "details": "low level token purchase ***DO NOT OVERRIDE***",
        "params": {
          "_beneficiary": "Address performing the token purchase"
        }
      },
      "capReached()": {
        "details": "Checks whether the cap has been reached.",
        "return": "Whether the cap was reached"
      },
      "checkRole(address,string)": {
        "details": "reverts if addr does not have role",
        "params": {
          "_operator": "address",
          "_role": "the name of the role // reverts"
        }
      },
      "getUserContribution(address)": {
        "details": "Returns the amount contributed so far by a specific user.\r",
        "params": {
          "_beneficiary": "Address of contributor\r"
        },
        "return": "User contribution so far\r"
      },
      "hasRole(address,string)": {
        "details": "determine if addr has role",
        "params": {
          "_operator": "address",
          "_role": "the name of the role"
        },
        "return": "bool"
      },
      "removeAddressFromWhitelist(address)": {
        "details": "remove an address from the whitelist",
        "params": {
          "_operator": "address"
        },
        "return": "true if the address was removed from the whitelist, false if the address wasn't in the whitelist in the first place"
      },
      "removeAddressesFromWhitelist(address[])": {
        "details": "remove addresses from the whitelist",
        "params": {
          "_operators": "addresses"
        },
        "return": "true if at least one address was removed from the whitelist, false if all addresses weren't in the whitelist in the first place"
      },
      "renounceOwnership()": {
        "details": "Allows the current owner to relinquish control of the contract."
      },
      "transferOwnership(address)": {
        "details": "Allows the current owner to transfer control of the contract to a newOwner.",
        "params": {
          "_newOwner": "The address to transfer ownership to."
        }
      },
      "whitelist(address)": {
        "details": "getter to determine if address is in whitelist"
      }
    }
  },
  "userdoc": {
    "methods": {
      "renounceOwnership()": {
        "notice": "Renouncing to ownership will leave the contract without an owner. It will not be possible to call the functions with the `onlyOwner` modifier anymore."
      }
    }
  }
}